S01700004763634170706C69636174696F6E312E737265635B
S113000045C0000053C0000051C000004FC00000B4
S11300104DC000004BC0000049C0000047C00000B4
S113002045C0000043C0000041C000003FC00000C4
S11300303DC000003BC0000039C0000037C00000D4
S113004036C0000033C0000031C000002FC00000E3
S11300502DC000002BC0000029C0000027C00000F4
S113006025C0000023C0000021C000001FC0000004
S11300701DC000001BC0000019C0000017C0000014
S113008015C0000013C0000011C0000011241FBEE1
S1130090CFEFD0E1DEBFCDBF21E0A0E0B1E001C0F1
S11300A01D92A130B207E1F722D033C0A9CF1F922D
S11300B00F920FB60F9211248F939F93809100019A
S11300C08F5F8093000180910001883C48F010927A
S11300D0000193B180E4892783B983B1805883B93F
S11300E09F918F910F900FBE0F901F9018958FEFD7
S11300F082B983B984E083BF81E087BF78942FEF0E
S113010083EC99E0215080409040E1F700C000006A
S1090110F6CFF894FFCFC6
S9030000FC
