S01700004763634170706C69636174696F6E312E737265635B
S11300005FC000007BC0000079C0000077C0000022
S113001075C0000073C0000071C000006FC0000014
S11300206DC000006BC0000003C2000067C0000088
S113003065C0000063C0000061C000005FC0000034
S11300405DC000005BC0000059C0000057C0000044
S113005055C0000081C2000051C000004FC0000024
S11300604DC000004BC0000049C0000047C0000064
S113007045C0000043C000000C94C90C3FC0000000
S11300803DC000003BC0000039C00000FB0000017F
S113009005010A010F011401190127011E012301A1
S11300A0690891089E08AB08C008CA08D408DE088D
S11300B01E09320946095709690978098C099D09FD
S11300C011241FBECFEFD0E1DEBFCDBF11E0A0E011
S11300D0B1E0E8E3FCE100E00BBF02C007900D9241
S11300E0A832B107D9F721E0A8E2B1E001C01D921E
S11300F0A43DB207E1F72FD70C941A0E81CFC09814
S113010082E08FB98FE39CE90197F1F700C000000A
S113011080E68FB98FE39CE90197F1F700C00000F6
S1130120C09A0895C09882E08FB98FE39CE9019743
S1130130F1F700C0000080E68FB98FE39CE90197D6
S1130140F1F700C00000C09A0895C09893E09FB9E9
S1130150EFE3FCE93197F1F700C000008FB98FE3BA
S11301609CE90197F1F700C000001FB8EFE3FCE938
S11301703197F1F700C000002FB11FB88FE39CE95D
S11301800197F1F700C000009FB1C09A220F892F98
S1130190881F8827881F820F0895C09892E09FB90E
S11301A0EFE3FCE93197F1F700C0000080688FB9F4
S11301B08FE39CE90197F1F700C000006FB9EFE30A
S11301C0FCE93197F1F700C00000C09A8FED9EE280
S11301D00197F1F700C0000008950F931F93CF9388
S11301E0DF938C01EB018A30910588F5FC01EA5B11
S11301F0FF4F0C94BC0D709391016093900127C044
S11302007093AC016093AB0122C07093A001609322
S11302109F011DC07093B2016093B10118C0709327
S1130220B4016093B30113C07093D1016093D00102
S11302300EC07093C5016093C40109C07093BC01E2
S11302406093BB0104C0709395016093940157DFE0
S1130250000F6D2F802FA1DF11E0100FBE01707809
S113026077232CF4615071097F6F6F5F7F4F812F6B
S113027094DF58DF802F69DFC82F812F66DF2C2F92
S113028030E0322F2227A901480F511DCA01DF9106
S1130290CF911F910F910895CF93DF93D82FDD0F46
S11302A08D2F53DFC82F81E08D0F4FDF2C2F30E0CF
S11302B0322F2227A901480F511DCA01DF91CF9186
S11302C0089580E090E0E8DF90939101809390019D
S11302D0039708F053C081E090E0DEDF9093AC0117
S11302E08093AB010A9708F04CC082E090E0D4DF21
S11302F09093A00180939F01069708F045C083E086
S113030090E0CADF9093B2018093B101029708F0A4
S11303103EC084E090E0C0DF9093B4018093B301C9
S113032080319742B8F585E090E0B6DF9093D10133
S11303308093D0018031974280F586E090E0ACDF75
S11303409093C5018093C4018031974248F588E0B9
S113035090E0A2DF9093BC018093BB01803197426F
S113036010F589E090E098DF9093950180939401D3
S113037080319742D8F48FEF9FEF089586E490E0A0
S1130380089587E490E0089588E490E0089589E46E
S113039090E008958AE490E008958BE490E0089555
S11303A08CE490E008958EE490E008958FE490E06A
S11303B00895CF92DF92EF92FF920F931F930091D3
S11303C080011091810120918201309183010617EF
S11303D0170728073907A8F40091800110918101BB
S11303E020918201309183010150110921093109C1
S11303F068017901C61AD70AE80AF90AC701B601E1
S113040010C00091800110918101209182013091EE
S1130410830168017901C61AD70AE80AF90AC701F3
S1130420B6011F910F91FF90EF90DF90CF90089548
S11304301F920F920FB60F9211240BB60F922F93A7
S11304403F938F939F93AF93BF93EF93FF938091C9
S1130450800190918101A0918201B0918301019664
S1130460A11DB11D8093800190938101A09382010D
S1130470B093830180916A0190916B01813921E0ED
S1130480920708F050C0019690936B0180936A0123
S1130490892B39F481E090916901911180E0809376
S11304A0690180916801833010F48F5F01C080E09E
S11304B080936801E82FF0E0E955FE4F9081209188
S11304C06901222311F12091C601322F3F703F3080
S11304D0A9F0811103C020FF18C012C0813019F4A3
S11304E021FF13C00FC0823019F422FF0EC00CC0CC
S11304F0833059F423FF09C090E007C090E005C0A1
S113050090E003C090E001C090E08BB3807F8BBB90
S11305102BB3E0916801F0E0E050FF4F8081822B23
S11305208BBB95BB05C010926B0110926A01B2CFD0
S1130530FF91EF91BF91AF919F918F913F912F9137
S11305400F900BBE0F900FBE0F901F90189580E474
S113055087B98FEF86B908951F920F920FB60F9245
S113056011240BB60F922F933F934F935F936F9386
S11305707F938F939F93EF93FF9324B185B18370FF
S113058090E0982F8827820F911D9093D301809338
S1130590D2014091660150916701FA01EE0FFF1FED
S11305A0EA5BFE4F2091C2013091C30160817181E9
S11305B0261B370B6091AD017091AE01718360838E
S11305C0820F931F9093C3018093C2014F30510552
S11305D01CF44F5F5F4F02C040E050E0509367014E
S11305E0409366019C01992314F4215F3F4F359594
S11305F027953595279535952795359527953093E6
S1130600AE012093AD01369AFF91EF919F918F91A6
S11306107F916F915F914F913F912F910F900BBEFE
S11306200F900FBE0F901F90189586B38F608F3F69
S1130630C1F02FEF39EF80E0215030408040E1F7E6
S113064000C0000086B38F608F3F59F086B38F607F
S11306509FEF21EE34E0915020403040E1F700C09C
S113066000000895CF93DF939C0199230CF04CC0B4
S1130670319521953109273E83E038073CF0EDEBB5
S1130680F1E089E082838183808313C0EDEBF1E0A4
S1130690C90164E670E00E948D0D6283CAE0D0E077
S11306A0BE010E948D0D6183C901BE010E948D0DA2
S11306B08083A7EAB1E080E413968C931397CDEB83
S11306C0D1E0E881F0E0EC5FFE4F80818C93E9811A
S11306D0F0E0EC5FFE4F808111968C931197EA81D4
S11306E0F0E0EC5FFE4F808112968C938091900134
S11306F090919101009709F487C0FC01E955FE4FE0
S113070080818068808380C0203187E2380744F08C
S1130710EDEBF1E089E083838283818380835EC093
S1130720EDEBF1E0C90168EE73E00E948D0D638387
S1130730C4E6D0E0BE010E948D0D6283C901BE01F2
S11307400E948D0DCAE0D0E0BE010E948D0D618330
S1130750C901BE010E948D0D808340C0EC91F0E080
S1130760EC5FFE4F80818D93A217B307B9F7809198
S1130770900190919101181619068CF08091C00196
S11307808F3389F5EDEBF1E0138282818F3359F5D4
S1130790128281818F3339F51092BE0124C08130D9
S11307A0910579F4EDEBF1E08181806881838381A7
S11307B08F33C9F4138282818F33A9F41092BF015D
S11307C012C0029781F4EDEBF1E0828180688283AC
S11307D083818F3341F41092C00105C0ADEBB1E0C9
S11307E021EC31E0BBCFE7EAF1E0ADEBB1E08C9175
S11307F0808311968C911197818312968C91129714
S1130800828313968C918383DF91CF910895EF9225
S1130810FF920F931F93CF93DF939C0199230CF0C6
S11308204AC0319521953109273E83E038074CF0C1
S1130830EDEBF1E080E4838387E682838183808328
S11308402CC0EDEBF1E080E48383C90164E670E041
S11308500E948D0D7B0162830AE010E0B8010E94C2
S11308608D0DEB016183C901B8010E948D0D808358
S113087027EA31E09927DC01AC5FBE4F8C91F90186
S11308808083DD27CC5FDE4F88818183F701FF27DA
S1130890EC5FFE4F8081F9018283809190019091F9
S11308A09101009709F464C0FC01E955FE4F808171
S11308B0806880835DC08031F7E29F0744F0EDEBF0
S11308C0F1E089E083838283818380833BC0EDEB05
S11308D0F1E068EE73E00E948D0D6383C4E6D0E01E
S11308E0BE010E948D0D6283C901BE010E948D0D5F
S11308F0CAE0D0E0BE010E948D0D6183C901BE0132
S11309000E948D0D80831EC0EC91F0E0EC5FFE4FE1
S113091080818D93A217B307B9F7809190019091CC
S113092091018130910531F4EDEBF1E08181806832
S113093081830DC0029759F4EDEBF1E08281806868
S1130940828305C0ADEBB1E021EC31E0DDCFE7EA15
S1130950F1E0ADEBB1E08C91808311968C9111970D
S1130960818312968C911297828313968C91838340
S1130970DF91CF911F910F91FF90EF900895EF9227
S1130980FF920F931F93CF93DF939C0199230CF055
S11309904AC0319521953109273E83E038074CF050
S11309A0EDEBF1E080E4838387E6828381838083B7
S11309B02CC0EDEBF1E080E48383C90164E670E0D0
S11309C00E948D0D7B0162830AE010E0B8010E9451
S11309D08D0DEB016183C901B8010E948D0D8083E7
S11309E027EA31E09927DC01AC5FBE4F8C91F90115
S11309F08083DD27CC5FDE4F88818183F701FF2769
S1130A00EC5FFE4F8081F901828380919001909187
S1130A109101009709F460C0FC01E955FE4F808103
S1130A208068808359C08031F7E29F0744F0EDEB82
S1130A30F1E089E0838382838183808337C0EDEB97
S1130A40F1E068EE73E00E948D0D6383C4E6D0E0AC
S1130A50BE010E948D0D6283C901BE010E948D0DED
S1130A60CAE0D0E0BE010E948D0D6183C901BE01C0
S1130A700E948D0D80831AC0EC91F0E0EC5FFE4F74
S1130A8080818D93A217B307B9F78091C0018F338A
S1130A9091F4EDEBF1E0138282818F3361F41282E1
S1130AA081818F3341F41092BE0105C0ADEBB1E0FA
S1130AB021EC31E0E1CFE7EAF1E0ADEBB1E08C917C
S1130AC0808311968C911197818312968C91129741
S1130AD0828313968C918383DF91CF911F910F9121
S1130AE0FF90EF900895EF92FF920F931F93CF938F
S1130AF0DF93EC01609142017091430180914401C4
S1130B009091450156DC6C3271408105910508F4E1
S1130B1071C08091800190918101A0918201B09176
S1130B2083018093420190934301A0934401B093C5
S1130B304501DD23CCF5D195C195D109C73E83E0AC
S1130B40D8074CF0EDEBF1E080E4838387E6828301
S1130B50818380834FC0EDEBF1E080E48383CE0199
S1130B6064E670E0DAD79B0162830AE010E0B80122
S1130B70D4D77B016183CE01B801CFD78083C7EA84
S1130B80D1E09927DC01AC5FBE4F8C918883F701DB
S1130B90FF27EC5FFE4F808189833327F901EC5FE7
S1130BA0FE4F80818A8326C0EDEBF1E0CE0168EE32
S1130BB073E0B3D7638324E630E0B901AED7628330
S1130BC0CE01B901AAD72AE030E0B901A6D76183E2
S1130BD0CE01B901A2D78083DF01C7EAD1E021ECBD
S1130BE031E0ED91F0E0EC5FFE4F80818993A21734
S1130BF0B307B9F7DF91CF911F910F91FF90EF9059
S1130C0008958FE08ABB87E087BB8FEF84BB88E0C1
S1130C1081BB8EEF82B98EE783B980E487BF14BCB1
S1130C2083E085BDC09A8DE58DB91EB81E9A1F9AC2
S1130C3008958F929F92AF92BF92CF92DF92EF92DC
S1130C40FF92CF93DF93C090C401D090C5010D2CC7
S1130C50000CEE08FF080B2EBAE0CC0CDD1CEE1CD9
S1130C60FF1CBA95D1F7B02DC0919401D091950194
S1130C702091BB013091BC012C1B3D0B4901330F6A
S1130C80AA08BB08C701B601A501940159D720934E
S1130C90A1013093A2014093A3015093A401222700
S1130CA03327A9012C193D094E095F09DE016DD7CF
S1130CB0A501940145D72093C7013093C8014093FF
S1130CC0C9015093CA01DF91CF91FF90EF90DF905B
S1130CD0CF90BF90AF909F908F900895AADF10920D
S1130CE0B0011092AF011092CF011092CE01109278
S1130CF0B6011092B5011092A6011092A5011092AE
S1130D009701109296011092C60108958091CB012B
S1130D109091CC0121E030E04091D0015091D1017B
S1130D204817590714F020E030E03093CF012093A6
S1130D30CE012091B3013091B40141E050E0281775
S1130D40390714F040E050E05093B0014093AF01F4
S1130D50281739071CF4DE9A1E9802C0DE981E9AE2
S1130D608091CE019091CF01892B19F0DD9A1F98C3
S1130D7002C0DD981F9A809904C0DE9A1E98DD9AFD
S1130D801F9808950895CF92DF92EF92FF920F93E8
S1130D901F9360913E0170913F01809140019091B9
S1130DA0410107DB643671058105910528F48091C2
S1130DB0CB019091CC01C8C08091800190918101B8
S1130DC0A0918201B091830180933E0190933F01F1
S1130DD0A0934001B09341018091AD019091AE0187
S1130DE08D3F934054F083E090E09093A60180936C
S1130DF0A501BAD280E090E0A7C08091AD019091A6
S1130E00AE01992354F484E090E09093A60180937A
S1130E10A501AAD280E090E097C0A091AD01B09165
S1130E20AE01E0903C01F0903D01F701EE0FFF1F91
S1130E30E85DFE4F2091A1013091A2014091A301F0
S1130E405091A401A2D60091C7011091C80120912C
S1130E50C9013091CA01AB01BC01400F511F621F8F
S1130E60731FDB01CA01772324F481509C4FAF4FD9
S1130E70BF4F072E7AE0B595A795979587957A95F4
S1130E80D1F7702D9183808389E0E816F1041CF476
S1130E90C701019602C080E090E090933D018093E9
S1130EA03C012091AB013091AC012F5F3F4F1216F2
S1130EB0130604F5C12CD12C7601A0E0B0E0FC01AE
S1130EC0EE0FFF1FE85DFE4F40815181052E000C9F
S1130ED0660B770BC40ED51EE61EF71E18161906F0
S1130EE014F4019702C089E090E01196A217B307A9
S1130EF034F303C0C12CD12C7601032E000C440B17
S1130F00550BC701B6011CD6C901E0919F01F091B0
S1130F10A001309781F404966AE070E0FED5CB011D
S1130F20880F991F660F771F660F771F660F771F4D
S1130F30860F971F09C0BF01F0D5E69FC001E79F48
S1130F40900DF69F900D11241F910F91FF90EF903B
S1130F50DF90CF90089555DEFADAFFD47894FDD46B
S1130F60B0D9BCDE10DF9093CC018093CB013AD092
S1130F7010E0D1E0C12FCADEAFD557DB80939801D2
S1130F808F3F09F0CD2FFFDE9093CC018093CB01EE
S1130F908091CD01823099F028F4882341F081308A
S1130FA051F019C0833079F0843089F014C08091F5
S1130FB0980111D111C080919801EDD30DC0809199
S1130FC098011DD109C080919801E7D105C0809195
S1130FD09801C3D301C006D0C13069F626DB8F3F28
S1130FE0E9F7C8CF7BDE1092CD01CDDE9093CC0122
S1130FF08093CB0137CB089581E08093CD0180911C
S11310000401ABE9B1E01C92E7EAF1E080831196B8
S11310101C921197818312961C92129782831396C5
S11310201C92838388E08093C60183E08093C1018E
S1131030089582E08093CD01109297011092960159
S1131040E7EAF1E0AEE0B1E01F968C911F9783834D
S11310501E968C911E97828318968C911897818383
S113106053968C9180838FE08093C6010895CF932B
S1131070DF939C01E7EBF1E068EE73E04ED5638308
S1131080C4E6D0E0BE0149D56283C901BE0145D59D
S1131090CAE0D0E0BE0141D56183C901BE013DD59E
S11310A080831092C10181E08093C601C901AFDB46
S11310B0DF91CF91089583E08093CD01E091960173
S11310C0F0919701E830F10508F082C0E05BFF4F32
S11310D053C5809190019091910190938F018093D9
S11310E08E01009721F481E08093C60114C0813001
S11310F0910521F482E08093C6010DC0029721F48A
S113110084E08093C60107C010928F0110928E0173
S113111081E08093C6018091CB019091CC0177CB83
S113112008958091AB019091AC0190938F018093CD
S11311308E0121E02093C60122CC089580919F0165
S11311409091A00190938F0180938E0121E02093D0
S1131150C60115CC089510928F0110928E018FE074
S11311608093C601E7EAF1E01382AEE0B1E01D9698
S11311708C911D9782831E968C9181831082089591
S11311808091B3019091B40190938F0180938E016B
S11311906ECF08958091D0019091D10190938F01E9
S11311A080938E0164CF08958091C4019091C5010C
S11311B090938F0180938E015ACF08951092C101AC
S11311C01092C6018091AD019091AE018CCC08952E
S11311D082E3D8CD08958F3711F40EDF0DC08099C6
S11311E006C08091D0019091D1013CDA05C0809174
S11311F0CB019091CC0136DA80E090E008958F37EE
S113120011F459DFAEC08F3B11F4ECDEAAC08F3E5F
S113121009F0A7C0E0919601F0919701E830F1053B
S11312200CF09AC03196F0939701E0939601E83060
S1131230F10508F08FC0E85AFF4F9EC4E7EAF1E0D9
S1131240AEE0B1E01F968C911F9783831E968C911C
S11312501E97828318968C911897818353968C914C
S113126080837FC0E7EAF1E0AEE0B1E015968C91AF
S11312701597838318968C91189782831B968C916B
S11312801B97818353968C9180836BC0E7EAF1E0CE
S1131290AEE0B1E013968C911397838318968C91EA
S11312A01897828355969C91918380835AC0E7EA6C
S11312B0F1E0AEE0B1E08C91838354968C91549725
S11312C0828353968C91539781831E968C9180834D
S11312D048C0AEE0B1E08C91E7EAF1E083831B966D
S11312E09C911B979283818351968C91808339C002
S11312F0E7EAF1E0AEE0B1E01E968C911E9783839D
S113130055968C915597828314968C91149781836A
S113131051968C91808325C0E7EAF1E0AEE0B1E01C
S113132052968C915297838314968C91149782834E
S113133053968C918183808314C0E7EAF1E080E4C2
S11313408383AEE0B1E09C91928313969C91918348
S1131350808307C06EDE05C010929701109296013B
S11313606DCF80E090E0089584E08093CD01E7EABA
S1131370F1E080911201838380E4828380910401EF
S11313808183A091A501B091A601AC5FBE4F8C9161
S113139080838FE08093C60108958F3709F055C08C
S11313A080919601909197018630910561F5809125
S11313B08E0190918F012091940130919501821BAF
S11313C0930B9C0122F422273327281B390B243149
S11313D0310544F481E090E09093A6018093A50147
S11313E0C3DFB8C18091C2019091C30180399E438B
S11313F044F082E090E09093A6018093A501B4DFCD
S1131400A9C1FADDA7C183309105B9F46091C20185
S11314107091C301772314F4615F7F4F75956795CD
S113142075956795759567957595679589E090E0CD
S11314300E94ED00FEDBD6DD8DC160918E017091BE
S11314408F010E94ED00CEDD85C18F3B11F4CADD12
S113145081C120919601309197012730310531F4F3
S11314608091AD019091AE013EDB74C18F3E09F0D5
S1131470FAC02230310509F458C044F4211531056D
S113148071F02130310509F43FC0EDC0233031053E
S113149009F482C0273031050CF4ADC0E4C080915A
S11314A08E0190918F01823091050CF043C1019619
S11314B090938F0180938E01009721F481E08093B3
S11314C0C60114C08130910521F482E08093C601E5
S11314D00DC0029721F484E08093C60107C01092E6
S11314E08F0110928E0181E08093C60180918E015C
S11314F090918F0190939101809390018091CB0101
S11315009091CC0184D926C180918E0190918F0154
S11315108930910514F4019602C080E090E0909324
S11315208F0180938E012BDA15C180918E019091E9
S11315308F018130910589F01CF4892B39F020C08A
S11315408230910589F00597B1F01AC081E090E0EE
S113155090938F0180938E0119C082E090E0909364
S11315608F0180938E0112C085E090E090938F01EB
S113157080938E010BC010928F0110928E0106C0D1
S113158081E090E090938F0180938E0180918E0191
S113159090918F01F4D9DEC080918E0190918F01DA
S11315A0892B91F010928F0110928E01E7EAF1E0FD
S11315B01382AEE0B1E01D968C911D9782831E9636
S11315C08C9181831082C6C081E090E090938F015A
S11315D080938E01E7EAF1E01382AEE0B1E0589621
S11315E08C915897828314968C9114978183529688
S11315F08C918083AFC08091C10190E0FC01E954DB
S1131600FE4F2081293010F42F5F01C020E0E7EB6A
S1131610F1E0DC01A954BE4F2C93438128EE33E062
S1131620429FC001439F900D1124228134E6239FE1
S1131630800D911D1124218130E0A901440F551F13
S1131640220F331F220F331F220F331F240F351F86
S1131650820F931F2081820F911D90938F0180939D
S11316608E01D5D877C08F3D09F074C0211531059E
S113167041F00CF46FC02450310923303105B0F12E
S113168069C080918E0190918F01181619060CF093
S113169056C0019790938F0180938E01009721F497
S11316A081E08093C60114C08130910521F482E069
S11316B08093C6010DC0029721F484E08093C60193
S11316C007C010928F0110928E0181E08093C601B1
S11316D080918E0190918F0190939101809390015C
S11316E08091CB019091CC0192D834C08091C101FA
S11316F0882361F181508093C101813051F028F039
S1131700823059F0833081F40CC081E08093C601AB
S11317100BC082E08093C60107C084E08093C601B9
S113172003C088E08093C60180918E0190918F015F
S11317306ED810C010928F0110928E01BFCE82E03D
S113174090E090938F0180938E01B7CF83E08093D4
S1131750C101E7CF80E090E008958F3709F442DCBF
S113176080E090E00895E7EAF1E0209112012383FC
S113177020E422836AE070E0D0D1DB01AC5FBE4F8D
S11317802C912183DC01AC5FBE4F8C9180838FE070
S11317908093C6010895CF93DF938F3F09F4D2C09D
S11317A0209184013091850121303105E1F41092BA
S11317B0850110928401ABE9B1E0C7EAD1E02FE9D9
S11317C031E0ED91F0E0EC5FFE4F80818993A21748
S11317D0B307B9F788E08093C60183E08093C10121
S11317E080E090E0B7C08F3709F064C0EBE9F1E026
S11317F0438128EE33E0429FC001439F900D1124A2
S11318002281AC0134E6239F400D511D11249181A6
S1131810892F90E0BC01660F771F9C01220F331FB4
S1131820220F331F220F331FCB01820F931F840F0C
S1131830951F2081820F911D8936964179F58091FB
S11318409601909197018630910509F560918E017A
S113185070918F0186E090E00E94ED006091C201DA
S11318607091C301772314F4615F7F4F7595679579
S113187075956795759567957595679588E090E07A
S11318800E94ED00D6D9AEDB80E090E063C00A97F9
S113189009F45BC0CEDB80E090E05CC085E090E0C2
S11318A062DF81E090E0909385018093840180E081
S11318B090E050C08F3B21F495DB80E090E04AC07B
S11318C08F3ED9F48091C10190E0FC01E556FE4FB2
S11318D0E081E93010F4EF5F01C0E0E0DC01A556DF
S11318E0BE4FEC93DC01A955BE4FF0E0EC5FFE4F18
S11318F020812C9380E090E02DC08F3D49F58091AC
S1131900C101882311F0815001C083E08093C1019B
S11319109091C601969519F09093C60103C098E082
S11319209093C60190E0DC01A955BE4FFC01E55639
S1131930FE4FE081F0E0EC5FFE4F80818C9380E00D
S113194090E008C080E090E005C08FEF9FEF02C0F8
S113195080E090E0DF91CF9108951092980087E69F
S113196080939900EDE9F0E0808186608083808136
S1131970877F808380818F7C808388E980939A002D
S11319800895EBE9F0E0908195FFFDCF80939C00F2
S113199008951F920F920FB60F9211240BB60F9257
S11319A02F933F938F939F93AF93BF93EF93FF93A3
S11319B090919C0080918D0181110AC0923081F533
S11319C081E080938C0190936C0180938D0128C0F9
S11319D0813031F5E0918C018E0F80938C01F0E021
S11319E0E459FE4F90839330D9F481E090E09093D2
S11319F0B6018093B50110928D01ECE6F1E0A6E703
S1131A00B1E022E731E081918D93E217F307D9F732
S1131A1086E090E090938B0180938A0110928C0170
S1131A20FF91EF91BF91AF919F918F913F912F9132
S1131A300F900BBE0F900FBE0F901F9018950F9331
S1131A401F93CF93DF93DF9AE6E7F1E08AEA80837E
S1131A5089E081832091CB013091CC0133233CF484
S1131A6012821382148215828BEB87831AC0E6E7F5
S1131A70F1E0C90168EE73E050D06283C4E6D0E0BF
S1131A80BE014BD06383C901BE0147D0CAE0D0E098
S1131A90BE0143D06483C901BE013FD085838BEB73
S1131AA087838FE59DE60197F1F700C00000C6E744
S1131AB0D1E00EE711E0899164DFC017D107D9F7AF
S1131AC08FE39CE90197F1F700C00000DF98DF91F4
S1131AD0CF911F910F9108956091860170918701B4
S1131AE080918801909189010E94D901653F7140DC
S1131AF08105910588F08091800190918101A091E8
S1131B008201B09183018093860190938701A09311
S1131B108801B093890193CF089597FB072E16F49B
S1131B20009406D077FD08D036D007FC05D03EF4EB
S1131B30909581959F4F0895709561957F4F089575
S1131B40052E97FB16F400940FD057FD05D037D01F
S1131B5007FC02D046F408C0509540953095219575
S1131B603F4F4F4F5F4F08959095809570956195C5
S1131B707F4F8F4F9F4F0895EE0FFF1F0024001CCF
S1131B800BBE0790F691E02D0994B7FF3AC039D007
S1131B90821B930B0895AA1BBB1B51E107C0AA1F0C
S1131BA0BB1FA617B70710F0A61BB70B881F991FFA
S1131BB05A95A9F780959095BC01CD010895A1E2AD
S1131BC01A2EAA1BBB1BFD010DC0AA1FBB1FEE1FB3
S1131BD0FF1FA217B307E407F50720F0A21BB30BFE
S1131BE0E40BF50B661F771F881F991F1A9469F77A
S1131BF060957095809590959B01AC01BD01CF01D6
S1131C00089509D0A59F900DB49F900DA49F800DB9
S1131C10911D11240895A29FB001B39FC001A39FF9
S1131C20700D811D1124911DB29F700D811D112411
S10B1C30911D0895F894FFCF03
S1131C38080402013F065B4F666D7D277F67777C4A
S1131C48395E79717D76060E783855545C73DC50AC
S10B1C586D781C1C1D64664933
S9030000FC
