:100000005FC000007BC0000079C0000077C0000026
:1000100075C0000073C0000071C000006FC0000018
:100020006DC000006BC0000003C2000067C000008C
:1000300065C0000063C0000061C000005FC0000038
:100040005DC000005BC0000059C0000057C0000048
:1000500055C0000081C2000051C000004FC0000028
:100060004DC000004BC0000049C0000047C0000068
:1000700045C0000043C000000C94050D3FC00000C7
:100080003DC000003BC0000039C00000FB00000183
:1000900005010A010F011401190127011E012301A5
:1000A000AA08D208DF08EC0801090B0915091F0985
:1000B0005F09730987099809AA09B909CD09DE09F9
:1000C00011241FBECFEFD0E1DEBFCDBF11E0A0E015
:1000D000B1E0E0EBFCE100E00BBF02C007900D9245
:1000E000A832B107D9F721E0A8E2B1E001C01D9222
:1000F000A53DB207E1F770D70C94560E81CFC0989A
:1001000082E08FB98FE39CE90197F1F700C000000E
:1001100080E68FB98FE39CE90197F1F700C00000FA
:10012000C09A0895C09882E08FB98FE39CE9019747
:10013000F1F700C0000080E68FB98FE39CE90197DA
:10014000F1F700C00000C09A0895C09893E09FB9ED
:10015000EFE3FCE93197F1F700C000008FB98FE3BE
:100160009CE90197F1F700C000001FB8EFE3FCE93C
:100170003197F1F700C000002FB11FB88FE39CE961
:100180000197F1F700C000009FB1C09A220F892F9C
:10019000881F8827881F820F0895C09892E09FB912
:1001A000EFE3FCE93197F1F700C0000080688FB9F8
:1001B0008FE39CE90197F1F700C000006FB9EFE30E
:1001C000FCE93197F1F700C00000C09A8FED9EE284
:1001D0000197F1F700C0000008950F931F93CF938C
:1001E000DF938C01EB018A30910588F5FC01EA5B15
:1001F000FF4F0C94F80D709393016093920127C008
:100200007093AE016093AD0122C07093A201609320
:10021000A1011DC07093B5016093B40118C0709323
:10022000B7016093B60113C07093D4016093D301FA
:100230000EC07093C8016093C70109C07093BF01DD
:100240006093BE0104C0709397016093960157DFDD
:10025000000F6D2F802FA1DF11E0100FBE0170780D
:1002600077232CF4615071097F6F6F5F7F4F812F6F
:1002700094DF58DF802F69DFC82F812F66DF2C2F96
:1002800030E0322F2227A901480F511DCA01DF910A
:10029000CF911F910F910895CF93DF93D82FDD0F4A
:1002A0008D2F53DFC82F81E08D0F4FDF2C2F30E0D3
:1002B000322F2227A901480F511DCA01DF91CF918A
:1002C000089580E090E0E8DF90939301809392019D
:1002D000039708F053C081E090E0DEDF9093AE0119
:1002E0008093AD010A9708F04CC082E090E0D4DF23
:1002F0009093A2018093A101069708F045C083E086
:1003000090E0CADF9093B5018093B401029708F0A2
:100310003EC084E090E0C0DF9093B7018093B601C7
:1003200080319742B8F585E090E0B6DF9093D40134
:100330008093D3018031974280F586E090E0ACDF76
:100340009093C8018093C7018031974248F588E0B7
:1003500090E0A2DF9093BF018093BE01803197426D
:1003600010F589E090E098DF9093970180939601D3
:1003700080319742D8F48FEF9FEF089586E490E0A4
:10038000089587E490E0089588E490E0089589E472
:1003900090E008958AE490E008958BE490E0089559
:1003A0008CE490E008958EE490E008958FE490E06E
:1003B0000895CF92DF92EF92FF920F931F930091D7
:1003C00084011091850120918601309187010617E3
:1003D000170728073907A8F40091840110918501B7
:1003E00020918601309187010150110921093109BD
:1003F00068017901C61AD70AE80AF90AC701B601E5
:1004000010C00091840110918501209186013091E6
:10041000870168017901C61AD70AE80AF90AC701F3
:10042000B6011F910F91FF90EF90DF90CF9008954C
:100430001F920F920FB60F9211240BB60F922F93AB
:100440003F938F939F93AF93BF93EF93FF938091CD
:10045000840190918501A0918601B0918701019658
:10046000A11DB11D8093840190938501A093860105
:10047000B093870180916A0190916B01813921E0ED
:10048000920708F050C0019690936B0180936A0127
:10049000892B39F481E090916901911180E080937A
:1004A000690180916801833010F48F5F01C080E0A2
:1004B00080936801E82FF0E0E755FE4F908120918E
:1004C0006901222311F12091C901322F3F703F3081
:1004D000A9F0811103C020FF18C012C0813019F4A7
:1004E00021FF13C00FC0823019F422FF0EC00CC0D0
:1004F000833059F423FF09C090E007C090E005C0A5
:1005000090E003C090E001C090E08BB3807F8BBB94
:100510002BB3E0916801F0E0E050FF4F8081822B27
:100520008BBB95BB05C010926B0110926A01B2CFD4
:10053000FF91EF91BF91AF919F918F913F912F913B
:100540000F900BBE0F900FBE0F901F90189580E478
:1005500087B98FEF86B908951F920F920FB60F9249
:1005600011240BB60F922F933F934F935F936F938A
:100570008F939F93AF93BF93EF93FF9364B185B134
:100580004091660150916701FA01EE0FFF1FEA5B8F
:10059000FE4F2091C5013091C601A081B1812A1B77
:1005A0003B0BA091B001B091B101B183A0838370E6
:1005B00090E0982F8827860F911D820F931F9093AC
:1005C000C6018093C5014F3051051CF44F5F5F4F4A
:1005D00002C040E050E050936701409366019C01E7
:1005E000992314F4215F3F4F35952795359527952D
:1005F00035952795359527953093B1012093B00116
:10060000369AFF91EF91BF91AF919F918F916F912A
:100610005F914F913F912F910F900BBE0F900FBEA6
:100620000F901F90189586B38F608F3FC1F02FEF0A
:1006300039EF80E0215030408040E1F700C00000F9
:1006400086B38F608F3F59F086B38F609FEF21EEA6
:1006500034E0915020403040E1F700C000000895A0
:10066000CF93DF939C0199230CF04CC031952195D9
:100670003109273E83E038073CF0E0ECF1E089E007
:1006800082838183808313C0E0ECF1E0C90164E6DA
:1006900070E00E94C90D6283CAE0D0E0BE010E94F2
:1006A000C90D6183C901BE010E94C90D8083A9EAF9
:1006B000B1E080E413968C931397C0ECD1E0E8810D
:1006C000F0E0EC5FFE4F80818C93E981F0E0EC5F1D
:1006D000FE4F808111968C931197EA81F0E0EC5FD8
:1006E000FE4F808112968C9380919201909193019C
:1006F000009709F487C0FC01E755FE4F80818068B0
:10070000808380C0203187E2380744F0E0ECF1E0DC
:1007100089E083838283818380835EC0E0ECF1E0A3
:10072000C90168EE73E00E94C90D6383C4E6D0E09E
:10073000BE010E94C90D6283C901BE010E94C90D9C
:10074000CAE0D0E0BE010E94C90D6183C901BE01AB
:100750000E94C90D808340C0EC91F0E0EC5FFE4F39
:1007600080818D93A217B307B9F780919201909180
:100770009301181619068CF08091C3018F3389F507
:10078000E0ECF1E0138282818F3359F5128281818E
:100790008F3339F51092C10124C08130910579F46D
:1007A000E0ECF1E081818068818383818F33C9F43B
:1007B000138282818F33A9F41092C20112C0029772
:1007C00081F4E0ECF1E082818068828383818F3361
:1007D00041F41092C30105C0A0ECB1E024EC31E07B
:1007E000BBCFE9EAF1E0A0ECB1E08C9180831196F7
:1007F0008C911197818312968C9112978283139614
:100800008C918383DF91CF910895EF92FF920F93A4
:100810001F93CF93DF939C0199230CF04AC031952D
:1008200021953109273E83E038074CF0E0ECF1E0F8
:1008300080E4838387E68283818380832CC0E0EC1D
:10084000F1E080E48383C90164E670E00E94C90D91
:100850007B0162830AE010E0B8010E94C90DEB0140
:100860006183C901B8010E94C90D808329EA31E082
:100870009927DC01AC5FBE4F8C91F9018083DD27A5
:10088000CC5FDE4F88818183F701FF27EC5FFE4F4D
:100890008081F90182838091920190919301009768
:1008A00009F464C0FC01E755FE4F808180688083B5
:1008B0005DC08031F7E29F0744F0E0ECF1E089E0B1
:1008C00083838283818380833BC0E0ECF1E068EE28
:1008D00073E00E94C90D6383C4E6D0E0BE010E94AC
:1008E000C90D6283C901BE010E94C90DCAE0D0E0F2
:1008F000BE010E94C90D6183C901BE010E94C90DDC
:1009000080831EC0EC91F0E0EC5FFE4F80818D9300
:10091000A217B307B9F780919201909193018130AA
:10092000910531F4E0ECF1E08181806881830DC0B4
:10093000029759F4E0ECF1E082818068828305C07F
:10094000A0ECB1E024EC31E0DDCFE9EAF1E0A0EC8D
:10095000B1E08C91808311968C91119781831296CE
:100960008C911297828313968C918383DF91CF9120
:100970001F910F91FF90EF900895EF92FF920F93C8
:100980001F93CF93DF939C0199230CF04AC03195BC
:1009900021953109273E83E038074CF0E0ECF1E087
:1009A00080E4838387E68283818380832CC0E0ECAC
:1009B000F1E080E48383C90164E670E00E94C90D20
:1009C0007B0162830AE010E0B8010E94C90DEB01CF
:1009D0006183C901B8010E94C90D808329EA31E011
:1009E0009927DC01AC5FBE4F8C91F9018083DD2734
:1009F000CC5FDE4F88818183F701FF27EC5FFE4FDC
:100A00008081F901828380919201909193010097F6
:100A100009F460C0FC01E755FE4F80818068808347
:100A200059C08031F7E29F0744F0E0ECF1E089E043
:100A3000838382838183808337C0E0ECF1E068EEBA
:100A400073E00E94C90D6383C4E6D0E0BE010E943A
:100A5000C90D6283C901BE010E94C90DCAE0D0E080
:100A6000BE010E94C90D6183C901BE010E94C90D6A
:100A700080831AC0EC91F0E0EC5FFE4F80818D9393
:100A8000A217B307B9F78091C3018F3391F4E0EC5B
:100A9000F1E0138282818F3361F4128281818F337E
:100AA00041F41092C10105C0A0ECB1E024EC31E0AA
:100AB000E1CFE9EAF1E0A0ECB1E08C9180831196FE
:100AC0008C911197818312968C9112978283139641
:100AD0008C918383DF91CF911F910F91FF90EF90C5
:100AE0000895EF92FF920F931F93CF93DF93EC0142
:100AF00060914201709143018091440190914501C0
:100B000058DC6C3271408105910508F474C0809105
:100B1000840190918501A0918601B0918701809315
:100B2000420190934301A0934401B0934501DD231A
:100B3000E4F5D195C195D109C73E83E0D8074CF0C3
:100B4000E0ECF1E080E4838387E682838183808325
:100B500052C0E0ECF1E080E48383CE0164E670E013
:100B60000E94C90D9B0162830AE010E0B8010E9457
:100B7000C90D7B016183CE01B8010E94C90D80833C
:100B8000C9EAD1E09927DC01AC5FBE4F8C91888324
:100B9000F701FF27EC5FFE4F808189833327F9013E
:100BA000EC5FFE4F80818A8326C0E0ECF1E0CE014D
:100BB00068EE73E0EED7638324E630E0B901E9D74D
:100BC0006283CE01B901E5D72AE030E0B901E1D76F
:100BD0006183CE01B901DDD78083DF01C9EAD1E0AD
:100BE00024EC31E0ED91F0E0EC5FFE4F80818993E1
:100BF000A217B307B9F7DF91CF911F910F91FF9023
:100C0000EF9008958FE08ABB87E087BB8FEF84BBAE
:100C100088E081BB8EEF82B98EE783B980E487BF1D
:100C200014BC83E085BDC09A8DE58DB91EB81E9AAF
:100C30001F9A08958F929F92AF92BF92CF92DF92A8
:100C4000EF92FF92CF93DF93C090C701D090C8017D
:100C50000D2C000CEE08FF080B2EBAE0CC0CDD1CAE
:100C6000EE1CFF1CBA95D1F7B02DC0919601D09122
:100C700097012091BE013091BF012C1B3D0B490112
:100C8000330FAA08BB08C701B601A501940194D788
:100C90002093A3013093A4014093A5015093A60192
:100CA00022273327A9012C193D094E095F09DE01CE
:100CB000A8D7A501940180D72093CA013093CB0116
:100CC0004093CC015093CD01DF91CF91FF90EF90F5
:100CD000DF90CF90BF90AF909F908F900895CF936B
:100CE000DF93C0919601D09197016091C7017091F7
:100CF000C801CB01770FAA0BBB0BBC01CD01052EA0
:100D00005AE0660F771F881F991F5A95D1F7502D0B
:100D10002091BE013091BF012C1B3D0B032E000C16
:100D2000440B550B49D750954095309521953F4F31
:100D30004F4F5F4FDE0165D76093CA017093CB01BF
:100D40008093CC019093CD01DF91CF91089572DF14
:100D50001092B3011092B2011092D2011092D101FF
:100D60001092B9011092B8011092A8011092A70137
:100D700010929901109298011092C90108958091E2
:100D8000D001882329F0DE981E9ADD981F9A0895D5
:100D90008091CE019091CF0121E030E04091D301CC
:100DA0005091D4014817590714F020E030E03093F7
:100DB000D2012093D1012091B6013091B70141E0D9
:100DC00050E02817390714F040E050E05093B30189
:100DD0004093B201281739071CF4DE9A1E9802C00E
:100DE000DE981E9A8091D1019091D201892B19F041
:100DF000DD9A1F9802C0DD981F9A809904C0DE9A80
:100E00001E98DD9A1F9808950895CF92DF92EF9271
:100E1000FF920F931F9360913E0170913F0180916B
:100E2000400190914101C5DA643671058105910553
:100E300028F48091CE019091CF01C7C080918401A8
:100E400090918501A0918601B091870180933E0128
:100E500090933F01A0934001B09341018091D00154
:100E6000811122C08091B0019091B1018D3F9340DA
:100E700054F083E090E09093A8018093A701B5D24D
:100E800080E090E0A2C08091B0019091B10118166D
:100E9000190654F084E090E09093A8018093A70194
:100EA000A4D280E090E091C0A091B001B091B101D6
:100EB000E0903C01F0903D01F701EE0FFF1FE85D6F
:100EC000FE4F8091960190919701A81BB90B20913C
:100ED000A3013091A4014091A5015091A60191D6A2
:100EE0008B019C01992324F401501C4F2F4F3F4F3D
:100EF000D901C801072E7AE0B595A79597958795F2
:100F00007A95D1F7702D9183808389E0E816F104FA
:100F10001CF4C701019602C080E090E090933D016F
:100F200080933C012091AD013091AE012F5F3F4F86
:100F30001216130604F5C12CD12C7601A0E0B0E006
:100F4000FC01EE0FFF1FE85DFE4F40815181052E31
:100F5000000C660B770BC40ED51EE61EF71E181686
:100F6000190614F4019702C089E090E01196A217C7
:100F7000B30734F303C0C12CD12C7601032E000C2F
:100F8000440B550BC701B60117D6C901E091A10169
:100F9000F091A201309781F404966AE070E0F9D5EF
:100FA000CB01880F991F660F771F660F771F660F9B
:100FB000771F860F971F09C0BF01EBD5E69FC001C1
:100FC000E79F900DF69F900D11241F910F91FF90B8
:100FD000EF90DF90CF90089515DEB9DAFAD47894C7
:100FE000F8D46FD9B4DE11DF9093CF018093CE0196
:100FF0003AD010E0D1E0C12FC2DEAAD514DB809335
:101000009A018F3F09F0CD2F00DF9093CF0180939D
:10101000CE018091D001823099F028F4882341F0EC
:10102000813051F019C0833079F0843089F014C0D8
:1010300080919A0111D111C080919A0100D20DC006
:1010400080919A011DD109C080919A0171D205C089
:1010500080919A0155D401C006D0C13069F6E3DA17
:101060008F3FE9F7C8CF73DE1092D001CEDE9093A8
:10107000CF018093CE01F4CA089581E08093D0011E
:1010800080910401ADE9B1E01C92E9EAF1E08083CE
:1010900011961C921197818312961C92129782834B
:1010A00013961C92838388E08093C90183E0809328
:1010B000C401089582E08093D001109299011092AA
:1010C0009801E9EAF1E0AEE0B1E01F968C911F973C
:1010D00083831E968C911E97828318968C91189705
:1010E000818353968C9180838FE08093C90108950A
:1010F000CF93DF939C01EAEBF1E068EE73E049D512
:101100006383C4E6D0E0BE0144D56283C901BE0159
:1011100040D5CAE0D0E0BE013CD56183C901BE0123
:1011200038D580831092C40181E08093C901C90140
:101130006CDBDF91CF91089583E08093D001E09143
:101140009801F0919901E830F10508F082C0E05B68
:10115000FF4F4EC580919201909193019093910120
:1011600080939001009721F481E08093C90114C01D
:101170008130910521F482E08093C9010DC002976E
:1011800021F484E08093C90107C01092910110926C
:10119000900181E08093C9018091CE019091CF01AF
:1011A00034CB08958091AD019091AE01909391015F
:1011B0008093900121E02093C901DFCB08958091B5
:1011C000A1019091A201909391018093900121E05F
:1011D0002093C901D2CB08951092910110929001F1
:1011E0008FE08093C901E9EAF1E01382AEE0B1E05B
:1011F0001D968C911D9782831E968C9181831082FF
:1012000008958091B6019091B701909391018093D8
:1012100090016ECF08958091D3019091D401909365
:1012200091018093900164CF08958091C7019091BE
:10123000C80190939101809390015ACF0895109224
:10124000C4011092C9018091B0019091B10149CCC3
:10125000089582E3D9CD08958F3711F40EDF0DC0C4
:10126000809906C08091D3019091D401F9D905C02D
:101270008091CE019091CF01F3D980E090E0089564
:101280008F3711F459DFAEC08F3B11F4ECDEAAC0EA
:101290008F3E09F0A7C0E0919801F0919901E830E4
:1012A000F1050CF09AC03196F0939901E093980102
:1012B000E830F10508F08FC0E85AFF4F99C4E9EA19
:1012C000F1E0AEE0B1E01F968C911F9783831E96EC
:1012D0008C911E97828318968C91189781835396D0
:1012E0008C9180837FC0E9EAF1E0AEE0B1E0159631
:1012F0008C911597838318968C91189782831B96EF
:101300008C911B97818353968C9180836BC0E9EA03
:10131000F1E0AEE0B1E013968C91139783831896B9
:101320008C911897828355969C91918380835AC0A3
:10133000E9EAF1E0AEE0B1E08C91838354968C91C0
:101340005497828353968C91539781831E968C91E8
:10135000808348C0AEE0B1E08C91E9EAF1E083839C
:101360001B969C911B979283818351968C918083CD
:1013700039C0E9EAF1E0AEE0B1E01E968C911E972B
:10138000838355968C915597828314968C911497EC
:10139000818351968C91808325C0E9EAF1E0AEE02B
:1013A000B1E052968C915297838314968C91149746
:1013B000828353968C918183808314C0E9EAF1E0A3
:1013C00080E48383AEE0B1E09C91928313969C917C
:1013D0009183808307C06EDE05C010929901109240
:1013E00098016DCF80E090E0089540918401509184
:1013F000850160918601709187014093800150932F
:10140000810160938201709383012091D001209328
:10141000AF0124E02093D001E9EAF1E0209112012C
:10142000238320E422832091040121838C5F9E4F3B
:10143000DC018C9180838FE08093C90108958F3700
:1014400099F5EDE9F1E0438128EE33E0429FC001D8
:10145000439F900D11242281AC0134E6239F400D5F
:10146000511D11249181892F90E0BC01660F771FD7
:101470009C01220F331F220F331F220F331FCB017A
:10148000820F931F840F951F2081820F911D893633
:10149000964111F40FDE49C085E090E09093A801D9
:1014A0008093A701A2DF41C08F3B11F4DCDD3DC07A
:1014B0008F3EC9F48091C40190E0FC01E356FE4FD9
:1014C000E081E93010F4EF5F01C0E0E0DC01A356F9
:1014D000BE4FEC93DC01A755BE4FF0E0EC5FFE4F32
:1014E00020812C9322C08F3D01F58091C401882377
:1014F00011F0815001C083E08093C4019091C90133
:10150000969519F09093C90103C098E09093C90192
:1015100090E0DC01A755BE4FFC01E356FE4FE08191
:10152000F0E0EC5FFE4F80818C9380E090E00895C6
:101530008F3709F05BC080919801909199018630B6
:10154000910509F03DC08091B0019091B1012091C9
:10155000960130919701821B930B9C0122F4222764
:101560003327281B390B2431310544F481E090E006
:101570009093A8018093A70138DFBFC18091B0018B
:101580009091B101893E934044F082E090E09093C5
:10159000A8018093A70129DFB0C1609190017091EB
:1015A000910186E090E00E94ED006091B0017091A1
:1015B000B10188E090E00E94ED003CDB54DD9DC16C
:1015C0008330910559F46091B0017091B10189E0C7
:1015D00090E00E94ED0083DB46DD8FC160919001B9
:1015E000709191010E94ED003EDD87C18F3B11F4A7
:1015F0003ADD83C12091980130919901273031055E
:1016000031F48091B0019091B1016BDA76C18F3ED7
:1016100009F0FAC02230310509F458C044F421150C
:10162000310571F02130310509F43FC0EDC02330A0
:10163000310509F482C0273031050CF4ADC0E4C097
:101640008091900190919101823091050CF045C1FB
:1016500001969093910180939001009721F481E08D
:101660008093C90114C08130910521F482E08093F8
:10167000C9010DC0029721F484E08093C90107C01D
:10168000109291011092900181E08093C9018091A4
:101690009001909191019093930180939201809198
:1016A000CE019091CF01B1D828C180919001909145
:1016B00091018930910514F4019602C080E090E018
:1016C000909391018093900158D917C18091900116
:1016D000909191018130910589F01CF4892B39F0AA
:1016E00020C08230910589F00597B1F01AC081E0E1
:1016F00090E0909391018093900119C082E090E076
:10170000909391018093900112C085E090E09093B6
:101710009101809390010BC0109291011092900161
:1017200006C081E090E090939101809390018091B8
:1017300090019091910121D9E0C080919001909108
:101740009101892B91F01092910110929001E9EA98
:10175000F1E01382AEE0B1E01D968C911D9782837B
:101760001E968C9181831082C8C081E090E0909396
:10177000910180939001E9EAF1E01382AEE0B1E0DB
:1017800058968C915897828314968C9114978183E4
:1017900052968C918083B1C08091C40190E0FC018D
:1017A000E654FE4F2081293010F42F5F01C020E065
:1017B000EAEBF1E0DC01A654BE4F2C93438128EE06
:1017C00033E0429FC001439F900D1124228134E6F3
:1017D000239F800D911D1124218130E0A901440F28
:1017E000551F220F331F220F331F220F331F240FC9
:1017F000351F820F931F2081820F911D90939101BD
:101800008093900102D879C08F3D09F076C02115F0
:10181000310541F00CF471C02450310923303105F9
:10182000B8F16BC080919001909191011816190642
:101830000CF058C00197909391018093900100970C
:1018400021F481E08093C90114C08130910521F415
:1018500082E08093C9010DC0029721F484E0809357
:10186000C90107C0109291011092900181E080930C
:10187000C90180919001909191019093930180937F
:1018800092018091CE019091CF010E94050435C054
:101890008091C401882369F181508093C401813013
:1018A00051F028F0823059F0833081F40CC081E08F
:1018B0008093C9010BC082E08093C90107C084E016
:1018C0008093C90103C088E08093C9018091900191
:1018D000909191010E94050410C010929101109204
:1018E0009001BDCE82E090E09093910180939001B1
:1018F000B5CF83E08093C401E6CF80E090E0089507
:10190000CF93DF93C82F6091800170918101809106
:101910008201909183010E94D901693B7B4081053E
:10192000910508F44BC08091AF018093D001809164
:10193000AF01813031F018F08330E1F045C093DB26
:1019400043C081E08093D001ADE9B1E0C9EAD1E0C4
:1019500021EA31E0ED91F0E0EC5FFE4F8081899368
:10196000A217B307B9F788E08093C90183E0809399
:10197000C4012AC08091980190919901833091050A
:10198000A9F410929101109290018FE08093C90107
:10199000E9EAF1E01382AEE0B1E01D968C911D976B
:1019A00082831E968C91818310820EC0069761F40B
:1019B00080919001909191019BDB06C0CF3721F47B
:1019C0008091AF018093D00180E090E0DF91CF91D2
:1019D00008951092980087E680939900EDE9F0E071
:1019E0008081866080838081877F808380818F7CF7
:1019F000808388E980939A000895EBE9F0E0908174
:101A000095FFFDCF80939C0008951F920F920FB613
:101A10000F9211240BB60F922F933F938F939F93A6
:101A2000AF93BF93EF93FF9390919C0080918F01B0
:101A300081110AC0923081F581E080938E019093EC
:101A40006C0180938F0128C0813031F5E0918E01C7
:101A50008E0F80938E01F0E0E459FE4F9083933017
:101A6000D9F481E090E09093B9018093B80110928D
:101A70008F01ECE6F1E0A6E7B1E022E731E08191E9
:101A80008D93E217F307D9F786E090E090938D01EC
:101A900080938C0110928E01FF91EF91BF91AF91D5
:101AA0009F918F913F912F910F900BBE0F900FBE82
:101AB0000F901F9018950F931F93CF93DF93DF9A8A
:101AC000E6E7F1E08AEA808389E081832091CE0114
:101AD0003091CF0133233CF4128213821482158299
:101AE0008BEB87831AC0E6E7F1E0C90168EE73E08B
:101AF00050D06283C4E6D0E0BE014BD06383C901FD
:101B0000BE0147D0CAE0D0E0BE0143D06483C90122
:101B1000BE013FD085838BEB87838FE59DE60197E0
:101B2000F1F700C00000C6E7D1E00EE711E08991AF
:101B300064DFC017D107D9F78FE39CE90197F1F76C
:101B400000C00000DF98DF91CF911F910F910895A1
:101B5000609188017091890180918A0190918B0137
:101B60000E94D901653F71408105910588F08091FF
:101B7000840190918501A0918601B09187018093A5
:101B8000880190938901A0938A01B0938B0193CF30
:101B9000089597FB072E16F4009406D077FD08D021
:101BA00036D007FC05D03EF4909581959F4F08955F
:101BB000709561957F4F0895052E97FB16F400945C
:101BC0000FD057FD05D037D007FC02D046F408C02F
:101BD00050954095309521953F4F4F4F5F4F089559
:101BE00090958095709561957F4F8F4F9F4F089589
:101BF000EE0FFF1F0024001C0BBE0790F691E02D96
:101C00000994B7FF3AC039D0821B930B0895AA1BE1
:101C1000BB1B51E107C0AA1FBB1FA617B70710F0D7
:101C2000A61BB70B881F991F5A95A9F78095909509
:101C3000BC01CD010895A1E21A2EAA1BBB1BFD0118
:101C40000DC0AA1FBB1FEE1FFF1FA217B307E4079B
:101C5000F50720F0A21BB30BE40BF50B661F771FF3
:101C6000881F991F1A9469F76095709580959095D3
:101C70009B01AC01BD01CF01089509D0A59F900D36
:101C8000B49F900DA49F800D911D11240895A29FD3
:101C9000B001B39FC001A39F700D811D1124911D40
:101CA000B29F700D811D1124911D0895F894FFCFEE
:101CB000080402013F065B4F666D7D277F67777CD6
:101CC000395E79717D76060E783855545C73DC5038
:081CD0006D781C1C1D646649BF
:00000001FF
