:1000000055C0000071C000006FC000006DC000004E
:100010006BC0000069C0000067C0000065C0000040
:1000200063C0000061C0000086C100005DC0000028
:100030005BC0000059C0000057C0000055C0000060
:1000400053C0000051C000004FC000004DC0000070
:100050004BC0000000C2000047C0000045C00000C7
:1000600043C0000041C000003FC000003DC0000090
:100070003BC0000039C0000037C0000035C00000A0
:1000800033C0000031C000002FC00000FC040C058C
:10009000210536056205710580058F057206860605
:1000A0009A06AB06BD06CC06E006F10611241FBE7B
:1000B000CFEFD0E1DEBFCDBF11E0A0E0B1E0E0EBDB
:1000C000F1E100E00BBF02C007900D92A832B1072A
:1000D000D9F721E0A8E2B1E001C01D92A83AB20729
:1000E000E1F706D40C94D6088BCFC09882E08FB984
:1000F0008FE39CE90197F1F700C0000080E68FB91B
:100100008FE39CE90197F1F700C00000C09A0895C1
:10011000C09882E08FB98FE39CE90197F1F700C0A6
:10012000000080E68FB98FE39CE90197F1F700C0EA
:100130000000C09A0895C09893E09FB9EFE3FCE9EE
:100140003197F1F700C000008FB98FE39CE9019768
:10015000F1F700C000001FB8EFE3FCE93197F1F7B9
:1001600000C000002FB11FB88FE39CE90197F1F7A1
:1001700000C000009FB1C09A220F892F881F8827D6
:10018000881F820F0895C09892E09FB9EFE3FCE9C1
:100190003197F1F700C0000080688FB98FE39CE9C8
:1001A0000197F1F700C000006FB9EFE3FCE9319768
:1001B000F1F700C00000C09A8FED9EE20197F1F7C1
:1001C00000C0000008950F931F93CF93DF93182F63
:1001D000EB018BDF110F6D2F812FD5DF01E0010FB8
:1001E000BE01707877232CF4615071097F6F6F5FC7
:1001F0007F4F802FC8DF8CDF812F9DDFC82F802F9E
:100200009ADF2C2F30E0322F2227A901480F511DF1
:10021000CA01DF91CF911F910F910895CF93DF9382
:10022000D82FDD0F8D2F87DFC82F81E08D0F83DF63
:100230002C2F30E0322F2227A901480F511DCA016F
:10024000DF91CF91089580E090E0E8DF90936B011B
:1002500080936A01039708F053C081E090E0DEDFED
:1002600090938401809383010A9708F04CC082E048
:1002700090E0D4DF90937A0180937901069708F09B
:1002800045C083E090E0CADF90938A0180938901A2
:10029000029708F03EC084E090E0C0DF90938C01AC
:1002A00080938B0180319742B8F585E090E0B6DF0E
:1002B0009093A7018093A6018031974280F586E054
:1002C00090E0ACDF90939B0180939A01803197423C
:1002D00048F588E090E0A2DF90939201809391012D
:1002E0008031974210F589E090E098DF90936F019C
:1002F00080936E0180319742D8F48FEF9FEF08957D
:1003000086E490E0089587E490E0089588E490E022
:10031000089589E490E008958AE490E008958BE4DC
:1003200090E008958CE490E008958EE490E00895C4
:100330008FE490E008951F920F920FB60F92112450
:100340000BB60F922F938F939F93AF93BF93EF931F
:10035000FF938091640190916501A0916601B09135
:1003600067010196A11DB11D809364019093650101
:10037000A0936601B093670180916201909163013F
:10038000813921E0920708F04EC0019690936301F5
:1003900080936201892B39F481E090916101911180
:1003A00080E08093610180916001833010F48F5F61
:1003B00001C080E080936001E82FF0E0E158FE4F3B
:1003C000908120916101222301F120919C0127302D
:1003D000A9F0811103C02130C1F412C0813019F499
:1003E000223099F40FC0823019F4243071F40CC01B
:1003F000833059F4283049F490E007C090E005C0FC
:1004000090E003C090E001C090E08BB3807F8BBB95
:100410002BB3E0916001F0E0E050FF4F8081822B30
:100420008BBB95BB05C01092630110926201B4CFE3
:10043000FF91EF91BF91AF919F918F912F910F906D
:100440000BBE0F900FBE0F901F9018958EE587B9C9
:100450008FEF86B908951F920F920FB60F92112455
:100460000BB60F922F933F934F935F938F939F936E
:10047000EF93FF9385B124B1837090E0982F882784
:10048000820F911D909386018093850180915E017A
:1004900090915F01FC01EE0FFF1FE25CFE4F209187
:1004A00098013091990140815181241B350B409175
:1004B000850150918601518340834091850150917F
:1004C0008601240F351F30939901209398018F30B6
:1004D000910514F4019602C080E090E090935F01D2
:1004E00080935E01FF91EF919F918F915F914F916A
:1004F0003F912F910F900BBE0F900FBE0F901F904A
:10050000189586B38F608F3FC1F02FEF39EF80E0F1
:10051000215030408040E1F700C0000086B38F607A
:100520008F3F59F086B38F609FEF23EC39E09150F5
:1005300020403040E1F700C000000895CF93DF93E2
:100540009C01E3E9F1E068EE73E0A3D56383C4E6C0
:10055000D0E0BE019ED56283C901BE019AD5CAE032
:10056000D0E0BE0196D56183C901BE0192D58083DA
:10057000DF0127E931E0EC91F0E0EC5FFE4F808194
:100580008D93A217B307B9F780916A0190916B011F
:1005900099238CF4809196018F33F1F5E3E9F1E032
:1005A000138282818F33C1F5128281818F33A1F54D
:1005B0001092940131C0009789F4809196018F3395
:1005C00059F5E3E9F1E0138282818F3329F5128234
:1005D00081818F3309F5109294011EC081309105FD
:1005E00079F4E3E9F1E081818068818383818F334D
:1005F00099F4138282818F3379F4109295010CC0A3
:10060000029751F4E3E9F1E082818068828383817B
:100610008F3311F410929601EFE7F1E0A3E9B1E016
:100620008C91808311968C911197818312968C9175
:100630001297828313968C918383DF91CF910895D3
:10064000CF93DF939C01E3E9F1E068EE73E021D5FD
:100650006383C4E6D0E0BE011CD56283C901BE013C
:1006600018D5CAE0D0E0BE0114D56183C901BE012E
:1006700010D58083DF01CFE7D1E027E931E0ED91AC
:10068000F0E0EC5FFE4F80818993A217B307B9F7C2
:10069000DF91CF9108958FE08ABB87E087BB8FEF12
:1006A00084BB88E081BB8EEF82B98EE783B980E49A
:1006B00087BF14BC83E085BDC09A8DE58DB91EB897
:1006C0001E9A1F9A0895CF93DF93E0919A01F091BB
:1006D0009B01C0916E01D0916F01209191013091E9
:1006E00092012C1B3D0B9E2F990F990F80E0B901B1
:1006F000D0D4CB01770FAA0BBB0B80937B019093D7
:100700007C01A0937D01B0937E01F195E195F10903
:10071000EC9FC001ED9F900DFC9F900D1124982F30
:10072000990F990F80E0B901B4D4CB01770FAA0BD0
:10073000BB0B80939D0190939E01A0939F01B0936A
:10074000A00110928801109287011092A5011092C9
:10075000A401DF91CF910895809187019091880144
:10076000892B19F0DD9AC69802C0DD98C69A80914F
:10077000A4019091A501892B19F0DE9AC7980895DC
:10078000DE98C79A08950895CF92DF92EF92FF9274
:100790000F931F93E0903C01F0903D01F701EE0FA5
:1007A000FF1FE85DFE4FA0919801B0919901209143
:1007B0007B0130917C0140917D0150917E01A1D45B
:1007C0008B019C010F2EFAE0000F111F221F331F17
:1007D000FA95D1F7F02D85FF04C0015F1F4F2F4F11
:1007E0003F4FD901C801689413F8B595A79597951F
:1007F00087951694D1F740919D0150919E0160918B
:100800009F017091A001840F951FA61FB71F072E8F
:100810007AE0B595A795979587957A95D1F7702D3C
:100820009183808389E0E816F1041CF4C7010196E6
:1008300002C080E090E090933D0180933C012091C4
:100840008301309184012F5F3F4F1216130604F588
:10085000C12CD12C7601A0E0B0E0FC01EE0FFF1F0F
:10086000E85DFE4F40815181052E000C660B770B31
:10087000C40ED51EE61EF71E1816190614F40197AD
:1008800002C089E090E01196A217B30734F303C0C9
:10089000C12CD12C7601032E000C440B550BC70143
:1008A000B6010AD4C901E0917901F0917A0130973B
:1008B00079F46AE070E0EDD3CB01880F991F660FE1
:1008C000771F660F771F660F771F860F971F09C068
:1008D000BF01DFD3E69FC001E79F900DF69F900D0B
:1008E00011241F910F91FF90EF90DF90CF9008950A
:1008F000D2DEACDD7894A7DCE6DE46DF9093A20181
:100900008093A10125D028DFFCDD809372013CDFBC
:100910009093A2018093A1018091A301813051F0B5
:1009200028F0823059F0833069F010C08091720154
:1009300003D1E9CF809172010BD1E5CF8091720193
:10094000B2D1E1CF8091720163D2DDCF01D0DBCF94
:100950001092A30110929C0117DF9093A201809343
:10096000A101ECCD089581E08093A3018091040161
:10097000A5E7B1E01C92EFE7F1E0808311961C92AD
:100980001197818312961C921297828313961C9260
:10099000838388E080939C0183E08093970108958E
:1009A00082E08093A3011092710110927001EFE731
:1009B000F1E0AEE0B1E01F968C911F9783831E9605
:1009C0008C911E97828318968C91189781835396E9
:1009D0008C9180838FE080939C01089583E08093C5
:1009E000A301E0917001F0917101E830F10508F088
:1009F000A0C0EA5BFF4F7CC380916A0190916B01BC
:100A0000909369018093680110929C018091A101EB
:100A10009091A20193CD08958091830190918401DA
:100A2000909369018093680110929C01EFE7F1E0D7
:100A3000138212821182DC01AC5FBE4F8C918083E5
:100A400008958091790190917A0190936901809342
:100A5000680110929C01EFE7F1E01382128211828B
:100A6000DC01AC5FBE4F8C91808308958091890139
:100A700090918A0190936901809368012FE02093FF
:100A80009C01892B89F0EFE7F1E01382AEE0B1E041
:100A900058968C915897828314968C9114978183E1
:100AA00052968C9180830895EFE7F1E01382AEE0D7
:100AB000B1E01D968C911D9782831E968C91818347
:100AC0001082089580918B0190918C01909369011F
:100AD000809368011092970121E020939C012ECD14
:100AE00008958091A6019091A70190936901809348
:100AF00068011092970121E020939C011FCD089579
:100B000080919A0190919B01909369018093680173
:100B10001092970121E020939C0110CD089510922E
:100B2000970110929C01809185019091860188CD5A
:100B3000089582E328CE08958F3711F431DF05C080
:100B40008091A1019091A201F9DC80E090E00895EC
:100B50008F3709F04DC0E5E7F1E0438128EE33E03F
:100B6000429FC001439F900D11242281AC0134E6C5
:100B7000239F400D511D11249181892F90E0BC01CC
:100B8000660F771F9C01220F331F220F331F220F86
:100B9000331FCB01820F931F840F951F2081820F7B
:100BA000911D8E3B9C40C9F4809170019091710120
:100BB0008630910559F4609168017091690186E071
:100BC00090E001DBC5DE80E090E008950A9709F42B
:100BD0005EC0E6DE80E090E0089580917001909123
:100BE00071010A9709F456C0B3DE80E090E00895E1
:100BF0008F3B59F480917001909171010A9709F42B
:100C00004CC0A6DE80E090E008958F3ED9F480913C
:100C1000970190E0FC01EB58FE4FE081E93010F4C1
:100C2000EF5F01C0E0E0DC01AB58BE4FEC93DC01AC
:100C3000A158BE4FF0E0EC5FFE4F20812C9380E086
:100C400090E008958F3D61F580919701882311F020
:100C5000815001C083E08093970190919C0196950B
:100C600019F090939C0103C098E090939C0190E050
:100C7000DC01A158BE4FFC01EB58FE4FE081F0E0D3
:100C8000EC5FFE4F80818C9380E090E008958FEFC1
:100C90009FEF08958EEF9FEF08958EEF9FEF0895D9
:100CA00080E090E008958F3711F498DEAEC08F3B5E
:100CB00011F44EDEAAC08F3E09F0A7C0E09170018A
:100CC000F0917101E830F1050CF09AC03196F09383
:100CD0007101E0937001E830F10508F08FC0E25B2C
:100CE000FF4F06C2EFE7F1E0AEE0B1E01F968C9156
:100CF0001F9783831E968C911E97828318968C91E2
:100D00001897818353968C9180837FC0EFE7F1E041
:100D1000AEE0B1E015968C911597838318968C916F
:100D2000189782831B968C911B97818353968C9185
:100D300080836BC0EFE7F1E0AEE0B1E013968C91F9
:100D40001397838318968C911897828355969C915C
:100D5000918380835AC0EFE7F1E0AEE0B1E08C917F
:100D6000838354968C915497828353968C91539796
:100D700081831E968C91808348C0AEE0B1E08C9157
:100D8000EFE7F1E083831B969C911B97928381830D
:100D900051968C91808339C0EFE7F1E0AEE0B1E08D
:100DA0001E968C911E97838355968C9155978283BE
:100DB00014968C911497818351968C91808325C0D1
:100DC000EFE7F1E0AEE0B1E052968C915297838369
:100DD00014968C911497828353968C91818380838F
:100DE00014C0EFE7F1E080E48383AEE0B1E09C91D2
:100DF000928313969C919183808307C0D1DD05C0B7
:100E000010927101109270016DCF80E090E0089512
:100E10008F3781F480917001909171018630910536
:100E200011F4A1DD33C16091680170916901CBD9E2
:100E30008FDD2CC18F3B11F48BDD28C12091700117
:100E4000309171012730310531F480918501909105
:100E50008601F6DB1BC18F3E09F0DBC02230310575
:100E6000D1F13CF42115310569F02130310511F142
:100E7000D0C02330310509F465C0273031050CF4AA
:100E800090C0C7C08091680190916901823091053E
:100E90001CF49C012F5F3F4F309369012093680140
:100EA00030936B0120936A018091A1019091A2017E
:100EB00045DBECC080916801909169018930910512
:100EC00014F4019602C080E090E090936901809351
:100ED000680134DBDBC08091680190916901813049
:100EE000910589F01CF4892B39F020C082309105DE
:100EF00089F00597B1F01AC081E090E09093690104
:100F00008093680119C082E090E09093690180931A
:100F1000680112C085E090E09093690180936801B8
:100F20000BC0109269011092680106C081E090E048
:100F300090936901809368018091A1019091A20131
:100F4000FDDAA4C08091680190916901892B91F02C
:100F50001092690110926801EFE7F1E01382AEE0B0
:100F6000B1E01D968C911D9782831E968C91818392
:100F700010828CC081E090E09093690180936801B9
:100F8000EFE7F1E01382AEE0B1E058968C9158970C
:100F9000828314968C911497818352968C918083CE
:100FA00075C08091970190E0FC01E357FE4F2081CE
:100FB0002A3010F42F5F01C020E0EDE8F1E0DC0101
:100FC000A357BE4F2C93438128EE33E0429FC001CC
:100FD000439F900D1124228134E6239F800D911DA3
:100FE0001124218130E0A901440F551F220F331F26
:100FF000220F331F220F331F240F351F820F931F21
:101000002081820F911D909369018093680196DA87
:101010003DC08F3DD9F52115310539F0BCF1245083
:10102000310923303105D0F031C0809168019091B1
:1010300069011816190614F4019702C082E090E0C5
:10104000909369018093680190936B0180936A018A
:101050008091A1019091A20171DA18C0809197014D
:10106000882311F0815001C083E080939701809123
:101070009C01869519F080939C0103C088E08093C1
:101080009C01809168019091690158DA80E090E0BC
:10109000089597FB072E16F4009406D077FD08D02C
:1010A00036D007FC05D03EF4909581959F4F08956A
:1010B000709561957F4F0895052E97FB16F4009467
:1010C0000FD057FD05D037D007FC02D046F408C03A
:1010D00050954095309521953F4F4F4F5F4F089564
:1010E00090958095709561957F4F8F4F9F4F089594
:1010F000EE0FFF1F0024001C0BBE0790F691E02DA1
:101100000994B7FF3AC039D0821B930B0895AA1BEC
:10111000BB1B51E107C0AA1FBB1FA617B70710F0E2
:10112000A61BB70B881F991F5A95A9F78095909514
:10113000BC01CD010895A1E21A2EAA1BBB1BFD0123
:101140000DC0AA1FBB1FEE1FFF1FA217B307E407A6
:10115000F50720F0A21BB30BE40BF50B661F771FFE
:10116000881F991F1A9469F76095709580959095DE
:101170009B01AC01BD01CF01089509D0A59F900D41
:10118000B49F900DA49F800D911D11240895A29FDE
:10119000B001B39FC001A39F700D811D1124911D4B
:1011A000B29F700D811D1124911D0895F894FFCFF9
:1011B000080402013F065B4F666D7D277F67777CE1
:1011C000395E79717D76060E783855545C73DC5043
:0811D0006D781C1C1D646649CA
:00000001FF
