S01700004763634170706C69636174696F6E312E737265635B
S11300005FC000007BC0000079C0000077C0000022
S113001075C0000073C0000071C000006FC0000014
S11300206DC000006BC0000003C2000067C0000088
S113003065C0000063C0000061C000005FC0000034
S11300405DC000005BC0000059C0000057C0000044
S113005055C000007DC2000051C000004FC0000028
S11300604DC000004BC0000049C0000047C0000064
S113007045C0000043C000000C94870A3FC0000044
S11300803DC000003BC0000039C00000FB0000017F
S113009005010A010F011401190127011E012301A1
S11300A080069006A506BA06E606F50604071307B9
S11300B009081D08310842085408630877088808AD
S11300C011241FBECFEFD0E1DEBFCDBF11E0A0E011
S11300D0B1E0E4EBF7E100E00BBF02C007900D9242
S11300E0A832B107D9F721E0A8E2B1E001C01D921E
S11300F0A23DB207E1F775D50C94D80B81CFC09817
S113010082E08FB98FE39CE90197F1F700C000000A
S113011080E68FB98FE39CE90197F1F700C00000F6
S1130120C09A0895C09882E08FB98FE39CE9019743
S1130130F1F700C0000080E68FB98FE39CE90197D6
S1130140F1F700C00000C09A0895C09893E09FB9E9
S1130150EFE3FCE93197F1F700C000008FB98FE3BA
S11301609CE90197F1F700C000001FB8EFE3FCE938
S11301703197F1F700C000002FB11FB88FE39CE95D
S11301800197F1F700C000009FB1C09A220F892F98
S1130190881F8827881F820F0895C09892E09FB90E
S11301A0EFE3FCE93197F1F700C0000080688FB9F4
S11301B08FE39CE90197F1F700C000006FB9EFE30A
S11301C0FCE93197F1F700C00000C09A8FED9EE280
S11301D00197F1F700C0000008950F931F93CF9388
S11301E0DF938C01EB018A30910588F5FC01EA5B11
S11301F0FF4F0C947A0B70938F0160938E0127C08C
S11302007093AA016093A90122C070939E01609328
S11302109D011DC07093B0016093AF0118C070932D
S1130220B2016093B10113C07093CF016093CE010A
S11302300EC07093C3016093C20109C07093BA01E8
S11302406093B90104C0709393016093920157DFE6
S1130250000F6D2F802FA1DF11E0100FBE01707809
S113026077232CF4615071097F6F6F5F7F4F812F6B
S113027094DF58DF802F69DFC82F812F66DF2C2F92
S113028030E0322F2227A901480F511DCA01DF9106
S1130290CF911F910F910895CF93DF93D82FDD0F46
S11302A08D2F53DFC82F81E08D0F4FDF2C2F30E0CF
S11302B0322F2227A901480F511DCA01DF91CF9186
S11302C0089580E090E0E8DF90938F0180938E01A1
S11302D0039708F053C081E090E0DEDF9093AA0119
S11302E08093A9010A9708F04CC082E090E0D4DF23
S11302F090939E0180939D01069708F045C083E08A
S113030090E0CADF9093B0018093AF01029708F0A8
S11303103EC084E090E0C0DF9093B2018093B101CD
S113032080319742B8F585E090E0B6DF9093CF0135
S11303308093CE018031974280F586E090E0ACDF77
S11303409093C3018093C2018031974248F588E0BD
S113035090E0A2DF9093BA018093B9018031974273
S113036010F589E090E098DF9093930180939201D7
S113037080319742D8F48FEF9FEF089586E490E0A0
S1130380089587E490E0089588E490E0089589E46E
S113039090E008958AE490E008958BE490E0089555
S11303A08CE490E008958EE490E008958FE490E06A
S11303B00895CF92DF92EF92FF920F931F930091D3
S11303C080011091810120918201309183010617EF
S11303D0170728073907A8F40091800110918101BB
S11303E020918201309183010150110921093109C1
S11303F068017901C61AD70AE80AF90AC701B601E1
S113040010C00091800110918101209182013091EE
S1130410830168017901C61AD70AE80AF90AC701F3
S1130420B6011F910F91FF90EF90DF90CF90089548
S11304301F920F920FB60F9211240BB60F922F93A7
S11304408F939F93AF93BF93EF93FF93809180011A
S113045090918101A0918201B09183010196A11D27
S1130460B11D8093800190938101A0938201B09388
S1130470830180916A0190916B01813921E0920797
S113048008F04EC0019690936B0180936A01892B0A
S113049039F481E090916901911180E080936901C0
S11304A080916801833010F48F5F01C080E08093F5
S11304B06801E82FF0E0EB55FE4F9081209169012F
S11304C0222301F12091C4012730A9F0811103C036
S11304D02130C1F412C0813019F4223099F40FC0D4
S11304E0823019F4243071F40CC0833059F428306C
S11304F049F490E007C090E005C090E003C090E0AC
S113050001C090E08BB3807F8BBB2BB3E09168017B
S1130510F0E0E050FF4F8081822B8BBB95BB05C080
S113052010926B0110926A01B4CFFF91EF91BF91C9
S1130530AF919F918F912F910F900BBE0F900FBE93
S11305400F901F90189580E487B98FEF86B90895AE
S11305501F920F920FB60F9211240BB60F922F9386
S11305603F934F935F936F937F938F939F93EF93F7
S1130570FF9324B185B1837090E0982F8827820F70
S1130580911D9093D1018093D001409166015091C7
S11305906701FA01EE0FFF1FEA5BFE4F2091C001D5
S11305A03091C10160817181261B370B6091AB01D1
S11305B07091AC0171836083820F931F9093C1018A
S11305C08093C0014F3051051CF44F5F5F4F02C050
S11305D040E050E050936701409366019C019923E9
S11305E014F4215F3F4F359527953595279535951B
S11305F02795359527953093AC012093AB01369A16
S1130600FF91EF919F918F917F916F915F914F91A6
S11306103F912F910F900BBE0F900FBE0F901F9024
S1130620189586B38F608F3FC1F02FEF39EF80E0CC
S1130630215030408040E1F700C0000086B38F6055
S11306408F3F59F086B38F609FEF23EC39E09150D0
S113065020403040E1F700C000000895EF92FF927F
S11306600F931F93CF93DF939C0199230CF047C002
S1130670319521953109273E83E038074CF0EBEBA7
S1130680F1E080E4838387E682838183808329C0C9
S1130690EBEBF1E080E48383C90164E670E0FBD70F
S11306A07B0162830AE010E0B801F5D7EB016183B6
S11306B0C901B801F0D7808325EA31E09927DC012C
S11306C0AC5FBE4F8C91F9018083DD27CC5FDE4F98
S11306D088818183F701FF27EC5FFE4F8081F90158
S11306E0828380918E0190918F01009709F481C0DB
S11306F0FC01EB55FE4F8081806880837AC0803195
S1130700F7E29F0744F0EBEBF1E089E08383828317
S11307108183808358C0EBEBF1E068EE73E0BBD7D4
S11307206383C4E6D0E0BE01B6D76283C901BE01CB
S1130730B2D7CAE0D0E0BE01AED76183C901BE0121
S1130740AAD7808340C0EC91F0E0EC5FFE4F80813B
S11307508D93A217B307B9F780918E0190918F0101
S1130760181619068CF08091BE018F3389F5EBEBD6
S1130770F1E0138282818F3359F5128281818F33A4
S113078039F51092BC0124C08130910579F4EBEB6A
S1130790F1E081818068818383818F33C9F413827E
S11307A082818F33A9F41092BD0112C0029781F4A3
S11307B0EBEBF1E082818068828383818F3341F4A3
S11307C01092BE0105C0ABEBB1E02FEB31E0BBCF23
S11307D0E5EAF1E0ABEBB1E08C91808311968C916A
S11307E01197818312968C911297828313968C9120
S11307F08383DF91CF911F910F91FF90EF90089524
S1130800CF93DF93EC016091420170914301809199
S1130810440190914501CDDD6C3271408105910513
S1130820B0F18091800190918101A0918201B091F9
S113083083018093420190934301A0934401B093B8
S11308404501EBEBF1E0CE0168EE73E024D763835E
S113085024E630E0B9011FD76283CE01B9011BD76A
S11308602AE030E0B90117D76183CE01B90113D76B
S11308708083DF01C5EAD1E02FEB31E0ED91F0E0B8
S1130880EC5FFE4F80818993A217B307B9F7DF911C
S1130890CF9108958FE08ABB87E087BB8FEF84BB3D
S11308A088E081BB8EEF82B98EE783B980E487BF8D
S11308B014BC83E085BDC09A8DE58DB91EB81E9A1F
S11308C01F9A08958F929F92AF92BF92CF92DF9218
S11308D0EF92FF92CF93DF93C090C201D090C301F7
S11308E00D2C000CEE08FF080B2EBAE0CC0CDD1C1E
S11308F0EE1CFF1CBA95D1F7B02DC0919201D09196
S113090093012091B9013091BA012C1B3D0B49018F
S1130910330FAA08BB08C701B601A5019401CED6BE
S113092020939F013093A0014093A1015093A20111
S113093022273327A9012C193D094E095F09DE013D
S1130940E2D6A5019401BAD62093C5013093C6011D
S11309504093C7015093C8011092AE011092AD01AB
S11309601092CD011092CC011092B4011092B301F7
S11309701092A4011092A301109295011092940177
S11309801092C401DF91CF91FF90EF90DF90CF9050
S1130990BF90AF909F908F9008958091C9019091DE
S11309A0CA0121E030E04091CE015091CF014817B7
S11309B0590714F020E030E03093CD012093CC01AE
S11309C02091B1013091B20141E050E0281739077C
S11309D014F040E050E05093AE014093AD0128176D
S11309E039071CF4DE9AC69802C0DE98C69A809134
S11309F0CC019091CD01892B19F0DD9AC79802C0E2
S1130A00DD98C79A8099DD9A08950895CF92DF9270
S1130A10EF92FF920F931F9360913E0170913F01FB
S1130A208091400190914101C4DC643671058105D7
S1130A30910528F48091C9019091CA01CBC080919D
S1130A40800190918101A0918201B09183018093F2
S1130A503E0190933F01A0934001B09341018091E6
S1130A60AB019091AC018D3F934054F083E090E052
S1130A709093A4018093A30162D380E090E0AAC084
S1130A808091AB019091AC01992354F484E090E0FF
S1130A909093A4018093A30152D380E090E09AC084
S1130AA0A091AB01B091AC01E0903C01F0903D010C
S1130AB0F701EE0FFF1FE85DFE4F20919F0130917B
S1130AC0A0014091A1015091A2011DD60091C50140
S1130AD01091C6012091C7013091C801AB01BC013E
S1130AE0400F511F621F731FDB01CA01772324F4D7
S1130AF081509C4FAF4FBF4F072E7AE0B595A79515
S1130B00979587957A95D1F7702D9183808389E0A5
S1130B10E816F1041CF4C701019602C080E090E0DD
S1130B2090933D0180933C012091A9013091AA0149
S1130B302F5F3F4F1216130604F5C12CD12C7601FA
S1130B40A0E0B0E0FC01EE0FFF1FE85DFE4F408126
S1130B505181052E000C660B770BC40ED51EE61EC4
S1130B60F71E1816190614F4019702C089E090E0E4
S1130B701196A217B30734F303C0C12CD12C76010C
S1130B80032E000C440B550BC701B60197D5E09119
S1130B909D01F0919E01309789F4C90105966AE0A0
S1130BA070E079D5CB01880F991F660F771F660F08
S1130BB0771F660F771F860F971F0CC0CF01820F18
S1130BC0931FBF0168D5E69FC001E79F900DF69F74
S1130BD0900D11241F910F91FF90EF90DF90CF9013
S1130BE0089558DEB0DC77D4789475D46ADB6ADE75
S1130BF00DDF9093CA018093C9012FD0CEDE2AD590
S1130C0010DD8093960102DF9093CA018093C9019D
S1130C108091CB01823099F028F4882341F081300F
S1130C2051F019C0833079F0843089F014C0809178
S1130C30960106D1E3CF809196010ED1DFCF80914A
S1130C409601C8D1DBCF8091960192D2D7CF809103
S1130C5096013BD4D3CF01D0D1CF34DE1092CB0157
S1130C60D5DE9093CA018093C901F8CC089581E040
S1130C708093CB0180910401A9E9B1E01C92E5EADB
S1130C80F1E0808311961C921197818312961C9235
S1130C901297828313961C92838388E08093C40105
S1130CA083E08093BF01089582E08093CB0110928A
S1130CB0950110929401E5EAF1E0AEE0B1E01F96EF
S1130CC08C911F9783831E968C911E97828318960E
S1130CD08C911897818353968C9180838FE08093B5
S1130CE0C401089583E08093CB01E0919401F091D5
S1130CF09501E830F10508F0A0C0E05BFF4FFAC4AD
S1130D0080918E0190918F0190938D0180938C013D
S1130D101092C4018091C9019091CA019FCC089599
S1130D208091A9019091AA0190938D0180938C01E7
S1130D301092C401E5EAF1E0138212821182DC010F
S1130D40AC5FBE4F8C918083089580919D019091FA
S1130D509E0190938D0180938C011092C401E5EA69
S1130D60F1E0138212821182DC01AC5FBE4F8C91E0
S1130D70808308958091AF019091B00190938D018B
S1130D8080938C012FE02093C401892B89F0E5EA3C
S1130D90F1E01382AEE0B1E058968C9158978283CB
S1130DA014968C911497818352968C918083089524
S1130DB0E5EAF1E01382AEE0B1E01D968C911D9757
S1130DC082831E968C918183108208958091B10153
S1130DD09091B20190938D0180938C011092BF0188
S1130DE021E02093C4013ACC08958091CE019091E2
S1130DF0CF0190938D0180938C011092BF0121E06B
S1130E002093C4012BCC08958091C2019091C30119
S1130E1090938D0180938C011092BF0121E0209367
S1130E20C4011CCC08951092BF011092C40180919A
S1130E30AB019091AC01E4CC089582E3E6CD089532
S1130E408F3711F414DF05C08091C9019091CA0154
S1130E5005DC80E090E008958F3709F060C0E9E98F
S1130E60F1E0438128EE33E0429FC001439F900D9F
S1130E7011242281AC0134E6239F400D511D11241D
S1130E809181892F90E0BC01660F771F9C01220F8E
S1130E90331F220F331F220F331FCB01820F931FE7
S1130EA0840F951F2081820F911D8E3B9C4061F51C
S1130EB0809194019091950186309105F1F46091AF
S1130EC08C0170918D0186E090E087D96091C0011A
S1130ED07091C101772314F4615F7F4F7595679515
S1130EE075956795759567957595679588E090E014
S1130EF074D9B3DE80E090E008950A9709F45EC0E7
S1130F00D3DE80E090E00895809194019091950162
S1130F100A9709F456C0A1DE80E090E008958F3B63
S1130F2059F480919401909195010A9709F44CC069
S1130F3094DE80E090E008958F3ED9F48091BF0163
S1130F4090E0FC01E756FE4FE081E93010F4EF5FDA
S1130F5001C0E0E0DC01A756BE4FEC93DC01AB55C9
S1130F60BE4FF0E0EC5FFE4F20812C9380E090E0D8
S1130F7008958F3D61F58091BF01882311F0815060
S1130F8001C083E08093BF019091C401969519F04C
S1130F909093C40103C098E09093C40190E0DC01F5
S1130FA0AB55BE4FFC01E756FE4FE081F0E0EC5F2D
S1130FB0FE4F80818C9380E090E008958FEF9FEF47
S1130FC008958EEF9FEF08958EEF9FEF089580E0D0
S1130FD090E008958F3711F485DEAEC08F3B11F495
S1130FE03CDEAAC08F3E09F0A7C0E0919401F091C5
S1130FF09501E830F1050CF09AC03196F093950113
S1131000E0939401E830F10508F08FC0E85AFF4FEF
S113101071C3E5EAF1E0AEE0B1E01F968C911F9751
S113102083831E968C911E97828318968C911897B1
S1131030818353968C9180837FC0E5EAF1E0AEE032
S1131040B1E015968C911597838318968C91189717
S113105082831B968C911B97818353968C918083FA
S11310606BC0E5EAF1E0AEE0B1E013968C91139722
S1131070838318968C911897828355969C919183BB
S113108080835AC0E5EAF1E0AEE0B1E08C9183835D
S113109054968C915497828353968C915397818361
S11310A01E968C91808348C0AEE0B1E08C91E5EA55
S11310B0F1E083831B969C911B97928381835196C5
S11310C08C91808339C0E5EAF1E0AEE0B1E01E9690
S11310D08C911E97838355968C9155978283149691
S11310E08C911497818351968C91808325C0E5EA75
S11310F0F1E0AEE0B1E052968C915297838314965E
S11311008C911497828353968C918183808314C02D
S1131110E5EAF1E080E48383AEE0B1E09C91928360
S113112013969C919183808307C0BEDD05C0109205
S11311309501109294016DCF80E090E0089584E0D1
S11311408093CB01E5EAF1E080911201838380E48E
S11311508283809104018183A091A301B091A401B1
S1131160AC5FBE4F8C9180838FE08093C40108955F
S11311708F3709F05CC0809194019091950186307D
S1131180910561F580918C0190918D0120919201DE
S113119030919301821B930B9C0122F42227332765
S11311A0281B390B2431310544F481E090E09093FD
S11311B0A4018093A301C3DF85C18091C0019091F4
S11311C0C10180399E4344F082E090E09093A401F1
S11311D08093A301B4DF76C14ADD74C183309105E5
S11311E0F1F460918C0170918D0183E090E00E9494
S11311F0ED006091C0017091C101772314F4615F27
S11312007F4F7595679575956795759567957595F0
S1131210679589E090E00E94ED001FDD53C1609165
S11312208C0170918D010E94ED0017DD4BC18F3B45
S113123011F413DD47C120919401309195012730B9
S1131240310531F48091AB019091AC01D9DA3AC106
S11312508F3E09F0E8C02230310509F43EC03CF469
S11312602115310569F02130310511F1DCC023303D
S1131270310509F469C0273031050CF494C0D3C09A
S113128080918C0190918D01823091051CF49C0118
S11312902F5F3F4F30938D0120938C0130938F014A
S11312A020938E018091C9019091CA01D7D90AC1B6
S11312B080918C0190918D018930910514F40196EF
S11312C002C080E090E090938D0180938C01809126
S11312D0C9019091CA0194DAF5C080918C01909172
S11312E08D018130910589F01CF4892B39F020C0DF
S11312F08230910589F00597B1F01AC081E090E041
S113130090938D0180938C0119C082E090E09093BA
S11313108D0180938C0112C085E090E090938D0143
S113132080938C010BC010928D0110928C0106C029
S113133081E090E090938D0180938C0180918C01E9
S113134090918D015DDABEC080918C0190918D01E8
S1131350892B91F010928D0110928C01E5EAF1E055
S11313601382AEE0B1E01D968C911D9782831E9688
S11313708C9181831082A6C081E090E090938D01CE
S113138080938C01E5EAF1E01382AEE0B1E0589677
S11313908C915897828314968C91149781835296DA
S11313A08C9180838FC08091BF0190E0FC01EB544D
S11313B0FE4F2081293010F42F5F01C020E0E5EBBF
S11313C0F1E0DC01AB54BE4F2C93438128EE33E0B3
S11313D0429FC001439F900D11242281AC0134E649
S11313E0239F400D511D11249181892F90E0BC0150
S11313F0660F771F9C01220F331F220F331F220F0A
S1131400331FCB01820F931F840F951F2081820FFE
S1131410911D90938D0180938C018091C9019091CD
S1131420CA01EED94FC08F3D09F04CC021153105DA
S113143041F00CF447C02450310923303105D0F079
S113144041C080918C0190918D011816190614F4F5
S1131450019702C082E090E090938D0180938C010B
S113146090938F0180938E018091C9019091CA015C
S1131470F5D828C08091BF01882301F18150809361
S1131480BF01813051F028F0823059F0833081F46B
S11314900CC081E08093C4010BC082E08093C4013E
S11314A007C084E08093C40103C088E08093C40132
S11314B08091C9019091CA01A3D904C083E08093AB
S11314C0BF01F3CF80E090E008958F3709F4C5DBC6
S11314D080E090E008951092980087E68093990048
S11314E0EDE9F0E08081866080838081877F80835E
S11314F080818F7C808388E980939A000895EBE94A
S1131500F0E0908195FFFDCF80939C0008951F9299
S11315100F920FB60F9211240BB60F922F933F9395
S11315208F939F93AF93BF93EF93FF9390919C00FE
S113153080918B0181110AC0923081F581E0809302
S11315408A0190936C0180938B0128C0813031F51E
S1131550E0918A018E0F80938A01F0E0E459FE4FF6
S113156090839330D9F481E090E09093B401809318
S1131570B30110928B01ECE6F1E0A6E7B1E022E7BB
S113158031E081918D93E217F307D9F786E090E07B
S1131590909389018093880110928A01FF91EF91C1
S11315A0BF91AF919F918F913F912F910F900BBE5F
S11315B00F900FBE0F901F9018950F931F93CF930A
S11315C0DF93DF9AE6E7F1E08AEA808389E08183AA
S11315D02091C9013091CA0133233CF41282138251
S11315E0148215828BEB87831AC0E6E7F1E0C90108
S11315F068EE73E050D06283C4E6D0E0BE014BD005
S11316006383C901BE0147D0CAE0D0E0BE0143D024
S11316106483C901BE013FD085838BEB87838FE54B
S11316209DE60197F1F700C00000C6E7D1E00EE7A0
S113163011E0899164DFC017D107D9F78FE39CE9E2
S11316400197F1F700C00000DF98DF91CF911F915F
S11316500F910895609184017091850180918601B4
S1131660909187010E94D901653F714081059105E0
S113167088F08091800190918101A0918201B091C4
S113168083018093840190938501A0938601B09394
S1131690870193CF089597FB072E16F4009406D084
S11316A077FD08D036D007FC05D03EF4909581959F
S11316B09F4F0895709561957F4F0895052E97FB70
S11316C016F400940FD057FD05D037D007FC02D094
S11316D046F408C050954095309521953F4F4F4FA3
S11316E05F4F089590958095709561957F4F8F4FCA
S11316F09F4F0895EE0FFF1F0024001C0BBE0790A0
S1131700F691E02D0994B7FF3AC039D0821B930BB0
S11317100895AA1BBB1B51E107C0AA1FBB1FA61734
S1131720B70710F0A61BB70B881F991F5A95A9F786
S113173080959095BC01CD010895A1E21A2EAA1BB3
S1131740BB1BFD010DC0AA1FBB1FEE1FFF1FA2176D
S1131750B307E407F50720F0A21BB30BE40BF50B6A
S1131760661F771F881F991F1A9469F760957095F3
S1131770809590959B01AC01BD01CF01089509D0DE
S1131780A59F900DB49F900DA49F800D911D1124D1
S11317900895A29FB001B39FC001A39F700D811D46
S11317A01124911DB29F700D811D1124911D089566
S10717B0F894FFCFD7
S11317B4080402013F065B4F666D7D277F67777CD3
S11317C4395E79717D76060E783855545C73DC5035
S10B17D46D781C1C1D646649BC
S9030000FC
